{
  "contractName": "KryptoBird",
  "abi": [
    {
      "inputs": [],
      "stateMutability": "nonpayable",
      "type": "constructor"
    },
    {
      "anonymous": false,
      "inputs": [
        {
          "indexed": true,
          "internalType": "address",
          "name": "_owner",
          "type": "address"
        },
        {
          "indexed": true,
          "internalType": "address",
          "name": "_approved",
          "type": "address"
        },
        {
          "indexed": true,
          "internalType": "uint256",
          "name": "_tokenId",
          "type": "uint256"
        }
      ],
      "name": "Approval",
      "type": "event"
    },
    {
      "anonymous": false,
      "inputs": [
        {
          "indexed": true,
          "internalType": "address",
          "name": "_from",
          "type": "address"
        },
        {
          "indexed": true,
          "internalType": "address",
          "name": "_to",
          "type": "address"
        },
        {
          "indexed": true,
          "internalType": "uint256",
          "name": "_tokenId",
          "type": "uint256"
        }
      ],
      "name": "Transfer",
      "type": "event"
    },
    {
      "inputs": [
        {
          "internalType": "bytes4",
          "name": "interfaceId",
          "type": "bytes4"
        }
      ],
      "name": "_registerInterface",
      "outputs": [],
      "stateMutability": "nonpayable",
      "type": "function"
    },
    {
      "inputs": [
        {
          "internalType": "address",
          "name": "_to",
          "type": "address"
        },
        {
          "internalType": "uint256",
          "name": "tokenId",
          "type": "uint256"
        }
      ],
      "name": "approve",
      "outputs": [],
      "stateMutability": "nonpayable",
      "type": "function"
    },
    {
      "inputs": [
        {
          "internalType": "address",
          "name": "_owner",
          "type": "address"
        }
      ],
      "name": "balanceOf",
      "outputs": [
        {
          "internalType": "uint256",
          "name": "",
          "type": "uint256"
        }
      ],
      "stateMutability": "view",
      "type": "function",
      "constant": true
    },
    {
      "inputs": [
        {
          "internalType": "uint256",
          "name": "",
          "type": "uint256"
        }
      ],
      "name": "kryptoBirdz",
      "outputs": [
        {
          "internalType": "string",
          "name": "",
          "type": "string"
        }
      ],
      "stateMutability": "view",
      "type": "function",
      "constant": true
    },
    {
      "inputs": [],
      "name": "name",
      "outputs": [
        {
          "internalType": "string",
          "name": "",
          "type": "string"
        }
      ],
      "stateMutability": "view",
      "type": "function",
      "constant": true
    },
    {
      "inputs": [
        {
          "internalType": "uint256",
          "name": "_tokenId",
          "type": "uint256"
        }
      ],
      "name": "ownerOf",
      "outputs": [
        {
          "internalType": "address",
          "name": "",
          "type": "address"
        }
      ],
      "stateMutability": "view",
      "type": "function",
      "constant": true
    },
    {
      "inputs": [
        {
          "internalType": "bytes4",
          "name": "interfaceID",
          "type": "bytes4"
        }
      ],
      "name": "supportsInterface",
      "outputs": [
        {
          "internalType": "bool",
          "name": "",
          "type": "bool"
        }
      ],
      "stateMutability": "view",
      "type": "function",
      "constant": true
    },
    {
      "inputs": [],
      "name": "symbol",
      "outputs": [
        {
          "internalType": "string",
          "name": "",
          "type": "string"
        }
      ],
      "stateMutability": "view",
      "type": "function",
      "constant": true
    },
    {
      "inputs": [
        {
          "internalType": "uint256",
          "name": "_index",
          "type": "uint256"
        }
      ],
      "name": "tokenByIndex",
      "outputs": [
        {
          "internalType": "uint256",
          "name": "",
          "type": "uint256"
        }
      ],
      "stateMutability": "view",
      "type": "function",
      "constant": true
    },
    {
      "inputs": [
        {
          "internalType": "address",
          "name": "_owner",
          "type": "address"
        },
        {
          "internalType": "uint256",
          "name": "_index",
          "type": "uint256"
        }
      ],
      "name": "tokenOfOwnerByIndex",
      "outputs": [
        {
          "internalType": "uint256",
          "name": "",
          "type": "uint256"
        }
      ],
      "stateMutability": "view",
      "type": "function",
      "constant": true
    },
    {
      "inputs": [],
      "name": "totalSupply",
      "outputs": [
        {
          "internalType": "uint256",
          "name": "",
          "type": "uint256"
        }
      ],
      "stateMutability": "view",
      "type": "function",
      "constant": true
    },
    {
      "inputs": [
        {
          "internalType": "address",
          "name": "_from",
          "type": "address"
        },
        {
          "internalType": "address",
          "name": "_to",
          "type": "address"
        },
        {
          "internalType": "uint256",
          "name": "_tokenId",
          "type": "uint256"
        }
      ],
      "name": "transferFrom",
      "outputs": [],
      "stateMutability": "nonpayable",
      "type": "function"
    },
    {
      "inputs": [
        {
          "internalType": "string",
          "name": "_kryptoBird",
          "type": "string"
        }
      ],
      "name": "mint",
      "outputs": [],
      "stateMutability": "nonpayable",
      "type": "function"
    }
  ],
  "bytecode": "0x60806040523480156200001157600080fd5b506040518060400160405280600a81526020017f4b727970746f42697264000000000000000000000000000000000000000000008152506040518060400160405280600681526020017f4b424952445a00000000000000000000000000000000000000000000000000008152508181620000b17f01ffc9a7a5cef8baa21ed3c5c0d7e23accb804b619e9333b597f47a0d84076e26200021c60201b60201c565b620001047f13b182f4c0e5b2efbac0efe6cf6d756c8b89f4b79c5707a043ed9ea740574ee97f7feaf19471f34a12a7eaf32d5f3090aa2260ea8624dc8a138e74e0bf0f623076186200021c60201b60201c565b81600190816200011591906200056d565b5080600290816200012791906200056d565b5050506200019f7f22c82707ba960a14c7592ffb6b8cfaa073fed0048a84cc7fa41f6b5bd8e7f2e47f8a7e378434598edc36d108689a030cbc9d7d465de4f74c71bae1028eed6a881b7f76138ea53a6622b63ff6257a72e1c4be8d15d082c2732db7db36678ffc52b83618186200021c60201b60201c565b620002147f8230223f691b981717299fae9549350a0d894555723531f02108b1f522c1a7977f6da5e1284143cdd2d15038a59bde3be031250f00291d64494c12d967b3a4e0c37fc53637662700e6c65104059db8bba34439e0c32483ab7c34e3ccae52c739549518186200021c60201b60201c565b5050620006d7565b63ffffffff60e01b817bffffffffffffffffffffffffffffffffffffffffffffffffffffffff19160362000287576040517f08c379a00000000000000000000000000000000000000000000000000000000081526004016200027e90620006b5565b60405180910390fd5b6001600080837bffffffffffffffffffffffffffffffffffffffffffffffffffffffff19167bffffffffffffffffffffffffffffffffffffffffffffffffffffffff1916815260200190815260200160002060006101000a81548160ff02191690831515021790555050565b600081519050919050565b7f4e487b7100000000000000000000000000000000000000000000000000000000600052604160045260246000fd5b7f4e487b7100000000000000000000000000000000000000000000000000000000600052602260045260246000fd5b600060028204905060018216806200037557607f821691505b6020821081036200038b576200038a6200032d565b5b50919050565b60008190508160005260206000209050919050565b60006020601f8301049050919050565b600082821b905092915050565b600060088302620003f57fffffffffffffffffffffffffffffffffffffffffffffffffffffffffffffffff82620003b6565b620004018683620003b6565b95508019841693508086168417925050509392505050565b6000819050919050565b6000819050919050565b60006200044e62000448620004428462000419565b62000423565b62000419565b9050919050565b6000819050919050565b6200046a836200042d565b62000482620004798262000455565b848454620003c3565b825550505050565b600090565b620004996200048a565b620004a68184846200045f565b505050565b5b81811015620004ce57620004c26000826200048f565b600181019050620004ac565b5050565b601f8211156200051d57620004e78162000391565b620004f284620003a6565b8101602085101562000502578190505b6200051a6200051185620003a6565b830182620004ab565b50505b505050565b600082821c905092915050565b6000620005426000198460080262000522565b1980831691505092915050565b60006200055d83836200052f565b9150826002028217905092915050565b6200057882620002f3565b67ffffffffffffffff811115620005945762000593620002fe565b5b620005a082546200035c565b620005ad828285620004d2565b600060209050601f831160018114620005e55760008415620005d0578287015190505b620005dc85826200054f565b8655506200064c565b601f198416620005f58662000391565b60005b828110156200061f57848901518255600182019150602085019450602081019050620005f8565b868310156200063f57848901516200063b601f8916826200052f565b8355505b6001600288020188555050505b505050505050565b600082825260208201905092915050565b7f4552433136353a20696e766c696420696e746572666163650000000000000000600082015250565b60006200069d60188362000654565b9150620006aa8262000665565b602082019050919050565b60006020820190508181036000830152620006d0816200068e565b9050919050565b61209480620006e76000396000f3fe608060405234801561001057600080fd5b50600436106100cf5760003560e01c80632f745c591161008c57806370a082311161006657806370a082311461022457806393ab6e561461025457806395d89b4114610284578063d85d3d27146102a2576100cf565b80632f745c59146101945780634f6ccce7146101c45780636352211e146101f4576100cf565b806301ffc9a7146100d4578063068417d91461010457806306fdde0314610120578063095ea7b31461013e57806318160ddd1461015a57806323b872dd14610178575b600080fd5b6100ee60048036038101906100e991906111ba565b6102be565b6040516100fb9190611202565b60405180910390f35b61011e600480360381019061011991906111ba565b610325565b005b6101286103f9565b60405161013591906112b6565b60405180910390f35b6101586004803603810190610153919061136c565b61048b565b005b610162610626565b60405161016f91906113bb565b60405180910390f35b610192600480360381019061018d91906113d6565b610633565b005b6101ae60048036038101906101a9919061136c565b610656565b6040516101bb91906113bb565b60405180910390f35b6101de60048036038101906101d99190611429565b610706565b6040516101eb91906113bb565b60405180910390f35b61020e60048036038101906102099190611429565b610777565b60405161021b9190611465565b60405180910390f35b61023e60048036038101906102399190611480565b610828565b60405161024b91906113bb565b60405180910390f35b61026e60048036038101906102699190611429565b6108df565b60405161027b91906112b6565b60405180910390f35b61028c61098b565b60405161029991906112b6565b60405180910390f35b6102bc60048036038101906102b791906115e2565b610a1d565b005b6000806000837bffffffffffffffffffffffffffffffffffffffffffffffffffffffff19167bffffffffffffffffffffffffffffffffffffffffffffffffffffffff1916815260200190815260200160002060009054906101000a900460ff169050919050565b63ffffffff60e01b817bffffffffffffffffffffffffffffffffffffffffffffffffffffffff19160361038d576040517f08c379a000000000000000000000000000000000000000000000000000000000815260040161038490611677565b60405180910390fd5b6001600080837bffffffffffffffffffffffffffffffffffffffffffffffffffffffff19167bffffffffffffffffffffffffffffffffffffffffffffffffffffffff1916815260200190815260200160002060006101000a81548160ff02191690831515021790555050565b606060018054610408906116c6565b80601f0160208091040260200160405190810160405280929190818152602001828054610434906116c6565b80156104815780601f1061045657610100808354040283529160200191610481565b820191906000526020600020905b81548152906001019060200180831161046457829003601f168201915b5050505050905090565b600061049682610777565b90508073ffffffffffffffffffffffffffffffffffffffff168373ffffffffffffffffffffffffffffffffffffffff1603610506576040517f08c379a00000000000000000000000000000000000000000000000000000000081526004016104fd90611769565b60405180910390fd5b8073ffffffffffffffffffffffffffffffffffffffff163373ffffffffffffffffffffffffffffffffffffffff1614610574576040517f08c379a000000000000000000000000000000000000000000000000000000000815260040161056b906117fb565b60405180910390fd5b826005600084815260200190815260200160002060006101000a81548173ffffffffffffffffffffffffffffffffffffffff021916908373ffffffffffffffffffffffffffffffffffffffff160217905550818373ffffffffffffffffffffffffffffffffffffffff168273ffffffffffffffffffffffffffffffffffffffff167f8c5be1e5ebec7d5bd14f71427d1e84f3dd0314c0f7b2291e5b200ac8c7c3b92560405160405180910390a4505050565b6000600680549050905090565b61063d3382610b19565b61064657600080fd5b610651838383610ba8565b505050565b600061066183610828565b82106106a2576040517f08c379a000000000000000000000000000000000000000000000000000000000815260040161069990611867565b60405180910390fd5b600860008473ffffffffffffffffffffffffffffffffffffffff1673ffffffffffffffffffffffffffffffffffffffff16815260200190815260200160002082815481106106f3576106f2611887565b5b9060005260206000200154905092915050565b6000610710610626565b8210610751576040517f08c379a000000000000000000000000000000000000000000000000000000000815260040161074890611902565b60405180910390fd5b6006828154811061076557610764611887565b5b90600052602060002001549050919050565b6000806003600084815260200190815260200160002060009054906101000a900473ffffffffffffffffffffffffffffffffffffffff169050600073ffffffffffffffffffffffffffffffffffffffff168173ffffffffffffffffffffffffffffffffffffffff160361081f576040517f08c379a000000000000000000000000000000000000000000000000000000000815260040161081690611994565b60405180910390fd5b80915050919050565b60008073ffffffffffffffffffffffffffffffffffffffff168273ffffffffffffffffffffffffffffffffffffffff1603610898576040517f08c379a000000000000000000000000000000000000000000000000000000000815260040161088f90611994565b60405180910390fd5b600460008373ffffffffffffffffffffffffffffffffffffffff1673ffffffffffffffffffffffffffffffffffffffff168152602001908152602001600020549050919050565b600a81815481106108ef57600080fd5b90600052602060002001600091509050805461090a906116c6565b80601f0160208091040260200160405190810160405280929190818152602001828054610936906116c6565b80156109835780601f1061095857610100808354040283529160200191610983565b820191906000526020600020905b81548152906001019060200180831161096657829003601f168201915b505050505081565b60606002805461099a906116c6565b80601f01602080910402602001604051908101604052809291908181526020018280546109c6906116c6565b8015610a135780601f106109e857610100808354040283529160200191610a13565b820191906000526020600020905b8154815290600101906020018083116109f657829003601f168201915b5050505050905090565b600b81604051610a2d91906119f0565b908152602001604051809103902060009054906101000a900460ff1615610a89576040517f08c379a0000000000000000000000000000000000000000000000000000000008152600401610a8090611a79565b60405180910390fd5b600a81908060018154018082558091505060019003906000526020600020016000909190919091509081610abd9190611c45565b5060006001600a80549050610ad29190611d46565b9050610ade3382610ded565b6001600b83604051610af091906119f0565b908152602001604051809103902060006101000a81548160ff0219169083151502179055505050565b6000610b2482610e0e565b610b63576040517f08c379a0000000000000000000000000000000000000000000000000000000008152600401610b5a90611dc6565b60405180910390fd5b6000610b6e83610777565b90508073ffffffffffffffffffffffffffffffffffffffff168473ffffffffffffffffffffffffffffffffffffffff161491505092915050565b600073ffffffffffffffffffffffffffffffffffffffff168273ffffffffffffffffffffffffffffffffffffffff1603610c17576040517f08c379a0000000000000000000000000000000000000000000000000000000008152600401610c0e90611e58565b60405180910390fd5b8273ffffffffffffffffffffffffffffffffffffffff16610c3782610777565b73ffffffffffffffffffffffffffffffffffffffff1614610c8d576040517f08c379a0000000000000000000000000000000000000000000000000000000008152600401610c8490611eea565b60405180910390fd5b6001600460008573ffffffffffffffffffffffffffffffffffffffff1673ffffffffffffffffffffffffffffffffffffffff1681526020019081526020016000206000828254610cdd9190611d46565b925050819055506001600460008473ffffffffffffffffffffffffffffffffffffffff1673ffffffffffffffffffffffffffffffffffffffff1681526020019081526020016000206000828254610d349190611f0a565b92505081905550816003600083815260200190815260200160002060006101000a81548173ffffffffffffffffffffffffffffffffffffffff021916908373ffffffffffffffffffffffffffffffffffffffff160217905550808273ffffffffffffffffffffffffffffffffffffffff168473ffffffffffffffffffffffffffffffffffffffff167fddf252ad1be2c89b69c2b068fc378daa952ba7f163c4a11628f55a4df523b3ef60405160405180910390a4505050565b610df78282610e80565b610e0081611041565b610e0a828261108a565b5050565b6000806003600084815260200190815260200160002060009054906101000a900473ffffffffffffffffffffffffffffffffffffffff169050600073ffffffffffffffffffffffffffffffffffffffff168173ffffffffffffffffffffffffffffffffffffffff161415915050919050565b600073ffffffffffffffffffffffffffffffffffffffff168273ffffffffffffffffffffffffffffffffffffffff1603610eef576040517f08c379a0000000000000000000000000000000000000000000000000000000008152600401610ee690611fd2565b60405180910390fd5b610ef881610e0e565b15610f38576040517f08c379a0000000000000000000000000000000000000000000000000000000008152600401610f2f9061203e565b60405180910390fd5b816003600083815260200190815260200160002060006101000a81548173ffffffffffffffffffffffffffffffffffffffff021916908373ffffffffffffffffffffffffffffffffffffffff1602179055506001600460008473ffffffffffffffffffffffffffffffffffffffff1673ffffffffffffffffffffffffffffffffffffffff1681526020019081526020016000206000828254610fda9190611f0a565b92505081905550808273ffffffffffffffffffffffffffffffffffffffff16600073ffffffffffffffffffffffffffffffffffffffff167fddf252ad1be2c89b69c2b068fc378daa952ba7f163c4a11628f55a4df523b3ef60405160405180910390a45050565b6006805490506007600083815260200190815260200160002081905550600681908060018154018082558091505060019003906000526020600020016000909190919091505550565b600860008373ffffffffffffffffffffffffffffffffffffffff1673ffffffffffffffffffffffffffffffffffffffff168152602001908152602001600020805490506009600083815260200190815260200160002081905550600860008373ffffffffffffffffffffffffffffffffffffffff1673ffffffffffffffffffffffffffffffffffffffff1681526020019081526020016000208190806001815401808255809150506001900390600052602060002001600090919091909150555050565b6000604051905090565b600080fd5b600080fd5b60007fffffffff0000000000000000000000000000000000000000000000000000000082169050919050565b61119781611162565b81146111a257600080fd5b50565b6000813590506111b48161118e565b92915050565b6000602082840312156111d0576111cf611158565b5b60006111de848285016111a5565b91505092915050565b60008115159050919050565b6111fc816111e7565b82525050565b600060208201905061121760008301846111f3565b92915050565b600081519050919050565b600082825260208201905092915050565b60005b8381101561125757808201518184015260208101905061123c565b83811115611266576000848401525b50505050565b6000601f19601f8301169050919050565b60006112888261121d565b6112928185611228565b93506112a2818560208601611239565b6112ab8161126c565b840191505092915050565b600060208201905081810360008301526112d0818461127d565b905092915050565b600073ffffffffffffffffffffffffffffffffffffffff82169050919050565b6000611303826112d8565b9050919050565b611313816112f8565b811461131e57600080fd5b50565b6000813590506113308161130a565b92915050565b6000819050919050565b61134981611336565b811461135457600080fd5b50565b60008135905061136681611340565b92915050565b6000806040838503121561138357611382611158565b5b600061139185828601611321565b92505060206113a285828601611357565b9150509250929050565b6113b581611336565b82525050565b60006020820190506113d060008301846113ac565b92915050565b6000806000606084860312156113ef576113ee611158565b5b60006113fd86828701611321565b935050602061140e86828701611321565b925050604061141f86828701611357565b9150509250925092565b60006020828403121561143f5761143e611158565b5b600061144d84828501611357565b91505092915050565b61145f816112f8565b82525050565b600060208201905061147a6000830184611456565b92915050565b60006020828403121561149657611495611158565b5b60006114a484828501611321565b91505092915050565b600080fd5b600080fd5b7f4e487b7100000000000000000000000000000000000000000000000000000000600052604160045260246000fd5b6114ef8261126c565b810181811067ffffffffffffffff8211171561150e5761150d6114b7565b5b80604052505050565b600061152161114e565b905061152d82826114e6565b919050565b600067ffffffffffffffff82111561154d5761154c6114b7565b5b6115568261126c565b9050602081019050919050565b82818337600083830152505050565b600061158561158084611532565b611517565b9050828152602081018484840111156115a1576115a06114b2565b5b6115ac848285611563565b509392505050565b600082601f8301126115c9576115c86114ad565b5b81356115d9848260208601611572565b91505092915050565b6000602082840312156115f8576115f7611158565b5b600082013567ffffffffffffffff8111156116165761161561115d565b5b611622848285016115b4565b91505092915050565b7f4552433136353a20696e766c696420696e746572666163650000000000000000600082015250565b6000611661601883611228565b915061166c8261162b565b602082019050919050565b6000602082019050818103600083015261169081611654565b9050919050565b7f4e487b7100000000000000000000000000000000000000000000000000000000600052602260045260246000fd5b600060028204905060018216806116de57607f821691505b6020821081036116f1576116f0611697565b5b50919050565b7f4572726f72202d20617070726f76616c20746f2063757272656e74206f776e6560008201527f7200000000000000000000000000000000000000000000000000000000000000602082015250565b6000611753602183611228565b915061175e826116f7565b604082019050919050565b6000602082019050818103600083015261178281611746565b9050919050565b7f43757272656e742063616c6c6572206973206e6f7420746865206f776e65722060008201527f6f662074686520746f6b656e0000000000000000000000000000000000000000602082015250565b60006117e5602c83611228565b91506117f082611789565b604082019050919050565b60006020820190508181036000830152611814816117d8565b9050919050565b7f6f776e657220696e646578206973206f7574206f6620626f756e647321000000600082015250565b6000611851601d83611228565b915061185c8261181b565b602082019050919050565b6000602082019050818103600083015261188081611844565b9050919050565b7f4e487b7100000000000000000000000000000000000000000000000000000000600052603260045260246000fd5b7f676c6f62616c20696e646578206973206f7574206f6620626f756e6473210000600082015250565b60006118ec601e83611228565b91506118f7826118b6565b602082019050919050565b6000602082019050818103600083015261191b816118df565b9050919050565b7f4f776e657220717565727920666f72206e6f6e2d6578697374656e7420746f6b60008201527f656e000000000000000000000000000000000000000000000000000000000000602082015250565b600061197e602283611228565b915061198982611922565b604082019050919050565b600060208201905081810360008301526119ad81611971565b9050919050565b600081905092915050565b60006119ca8261121d565b6119d481856119b4565b93506119e4818560208601611239565b80840191505092915050565b60006119fc82846119bf565b915081905092915050565b7f4572726f723a204b727970746f204269726420616c726561647920657869737460008201527f7300000000000000000000000000000000000000000000000000000000000000602082015250565b6000611a63602183611228565b9150611a6e82611a07565b604082019050919050565b60006020820190508181036000830152611a9281611a56565b9050919050565b60008190508160005260206000209050919050565b60006020601f8301049050919050565b600082821b905092915050565b600060088302611afb7fffffffffffffffffffffffffffffffffffffffffffffffffffffffffffffffff82611abe565b611b058683611abe565b95508019841693508086168417925050509392505050565b6000819050919050565b6000611b42611b3d611b3884611336565b611b1d565b611336565b9050919050565b6000819050919050565b611b5c83611b27565b611b70611b6882611b49565b848454611acb565b825550505050565b600090565b611b85611b78565b611b90818484611b53565b505050565b5b81811015611bb457611ba9600082611b7d565b600181019050611b96565b5050565b601f821115611bf957611bca81611a99565b611bd384611aae565b81016020851015611be2578190505b611bf6611bee85611aae565b830182611b95565b50505b505050565b600082821c905092915050565b6000611c1c60001984600802611bfe565b1980831691505092915050565b6000611c358383611c0b565b9150826002028217905092915050565b611c4e8261121d565b67ffffffffffffffff811115611c6757611c666114b7565b5b611c7182546116c6565b611c7c828285611bb8565b600060209050601f831160018114611caf5760008415611c9d578287015190505b611ca78582611c29565b865550611d0f565b601f198416611cbd86611a99565b60005b82811015611ce557848901518255600182019150602085019450602081019050611cc0565b86831015611d025784890151611cfe601f891682611c0b565b8355505b6001600288020188555050505b505050505050565b7f4e487b7100000000000000000000000000000000000000000000000000000000600052601160045260246000fd5b6000611d5182611336565b9150611d5c83611336565b925082821015611d6f57611d6e611d17565b5b828203905092915050565b7f746f6b656e20646f6573206e6f74206578697374000000000000000000000000600082015250565b6000611db0601483611228565b9150611dbb82611d7a565b602082019050919050565b60006020820190508181036000830152611ddf81611da3565b9050919050565b7f4572726f72202d20455243373231207472616e7366657220746f207a65726f2060008201527f6164647265737300000000000000000000000000000000000000000000000000602082015250565b6000611e42602783611228565b9150611e4d82611de6565b604082019050919050565b60006020820190508181036000830152611e7181611e35565b9050919050565b7f547279696e6720746f207472616e7366657220746f6b656e207468652061646460008201527f7265737320646f6573206e6f7420686176650000000000000000000000000000602082015250565b6000611ed4603283611228565b9150611edf82611e78565b604082019050919050565b60006020820190508181036000830152611f0381611ec7565b9050919050565b6000611f1582611336565b9150611f2083611336565b9250827fffffffffffffffffffffffffffffffffffffffffffffffffffffffffffffffff03821115611f5557611f54611d17565b5b828201905092915050565b7f4552433732313a206d696e74696e6720746f20746865207a65726f206164647260008201527f6573730000000000000000000000000000000000000000000000000000000000602082015250565b6000611fbc602383611228565b9150611fc782611f60565b604082019050919050565b60006020820190508181036000830152611feb81611faf565b9050919050565b7f4552433732313a20746f6b656e20616c7265616479206d696e74656400000000600082015250565b6000612028601c83611228565b915061203382611ff2565b602082019050919050565b600060208201905081810360008301526120578161201b565b905091905056fea2646970667358221220f080871adbbdf1a5166c180acafbd13bf282ca604a164e5bab317da81a69a9df64736f6c634300080f0033",
  "immutableReferences": {},
  "source": "// SPDX-License-Identifier: MIT\npragma solidity ^0.8.15;\n\nimport './ERC721Connector.sol';\n\n\ncontract KryptoBird is ERC721Connector {\n      \n\n    string [] public kryptoBirdz;\n    mapping (string => bool) _kryptoBirdzExists;\n\n\n    function mint (string memory _kryptoBird) public {\n        require(!_kryptoBirdzExists[_kryptoBird],'Error: Krypto Bird already exists');\n        kryptoBirdz.push(_kryptoBird);\n        uint _id= kryptoBirdz.length - 1;\n        _mint(msg.sender,_id);\n        _kryptoBirdzExists[_kryptoBird]=true;\n    }\n\nconstructor() ERC721Connector('KryptoBird','KBIRDZ'){}\n \n\n}",
  "sourcePath": "/Users/dipanshuraj/Documents/NFT Market/nft-marketplace-main/src/contracts/KryptoBirdz.sol",
  "compiler": {
    "name": "solc",
    "version": "0.8.15+commit.e14f2714.Emscripten.clang"
  },
  "schemaVersion": "3.4.7",
  "updatedAt": "2022-08-11T10:01:21.507Z",
  "networkType": "ethereum",
  "devdoc": {
    "kind": "dev",
    "methods": {
      "balanceOf(address)": {
        "details": "NFTs assigned to the zero address are considered invalid, and this  function throws for queries about the zero address.",
        "params": {
          "_owner": "An address for whom to query the balance"
        },
        "returns": {
          "_0": "The number of NFTs owned by `_owner`, possibly zero"
        }
      },
      "ownerOf(uint256)": {
        "details": "NFTs assigned to zero address are considered invalid, and queries  about them do throw.",
        "params": {
          "_tokenId": "The identifier for an NFT"
        },
        "returns": {
          "_0": "The address of the owner of the NFT"
        }
      },
      "supportsInterface(bytes4)": {
        "details": "Interface identification is specified in ERC-165. This function  uses less than 30,000 gas.",
        "params": {
          "interfaceID": "The interface identifier, as specified in ERC-165"
        },
        "returns": {
          "_0": "`true` if the contract implements `interfaceID` and  `interfaceID` is not 0xffffffff, `false` otherwise"
        }
      },
      "tokenByIndex(uint256)": {
        "details": "Throws if `_index` >= `totalSupply()`.",
        "params": {
          "_index": "A counter less than `totalSupply()`"
        },
        "returns": {
          "_0": "The token identifier for the `_index`th NFT,  (sort order not specified)"
        }
      },
      "tokenOfOwnerByIndex(address,uint256)": {
        "details": "Throws if `_index` >= `balanceOf(_owner)` or if  `_owner` is the zero address, representing invalid NFTs.",
        "params": {
          "_index": "A counter less than `balanceOf(_owner)`",
          "_owner": "An address where we are interested in NFTs owned by them"
        },
        "returns": {
          "_0": "The token identifier for the `_index`th NFT assigned to `_owner`,   (sort order not specified)"
        }
      },
      "totalSupply()": {
        "returns": {
          "_0": "A count of valid NFTs tracked by this contract, where each one of  them has an assigned and queryable owner not equal to the zero address"
        }
      },
      "transferFrom(address,address,uint256)": {
        "details": "Throws unless `msg.sender` is the current owner, an authorized  operator, or the approved address for this NFT. Throws if `_from` is  not the current owner. Throws if `_to` is the zero address. Throws if  `_tokenId` is not a valid NFT.",
        "params": {
          "_from": "The current owner of the NFT",
          "_to": "The new owner",
          "_tokenId": "The NFT to transfer"
        }
      }
    },
    "version": 1
  },
  "userdoc": {
    "kind": "user",
    "methods": {
      "balanceOf(address)": {
        "notice": "Count all NFTs assigned to an owner"
      },
      "ownerOf(uint256)": {
        "notice": "Find the owner of an NFT"
      },
      "supportsInterface(bytes4)": {
        "notice": "Query if a contract implements an interface"
      },
      "tokenByIndex(uint256)": {
        "notice": "Enumerate valid NFTs"
      },
      "tokenOfOwnerByIndex(address,uint256)": {
        "notice": "Enumerate NFTs assigned to an owner"
      },
      "totalSupply()": {
        "notice": "Count NFTs tracked by this contract"
      },
      "transferFrom(address,address,uint256)": {
        "notice": "Transfer ownership of an NFT -- THE CALLER IS RESPONSIBLE  TO CONFIRM THAT `_to` IS CAPABLE OF RECEIVING NFTS OR ELSE  THEY MAY BE PERMANENTLY LOST"
      }
    },
    "version": 1
  }
}